:020000040000FA
:100000000C9462000C948A000C948A000C948A0070
:100010000C948A000C948A000C948A000C948A0038
:100020000C948A000C948A000C948A000C948A0028
:100030000C948A000C948A000C948A000C948A0018
:100040000C946D040C948A000C948A000C948A0021
:100050000C948A000C948A000C948A000C948A00F8
:100060000C948A000C948A000000000024002700F1
:100070002A0000000000250028002B0000000000DE
:1000800023002600290004040404040404040202DA
:100090000202020203030303030301020408102007
:1000A0004080010204081020010204081020000012
:1000B0000008000201000003040700000000000027
:1000C0000000B00711241FBECFEFD8E0DEBFCDBFC8
:1000D00011E0A0E0B1E0EEE9F0E102C005900D9280
:1000E000AC38B107D9F722E0ACE8B1E001C01D920D
:1000F000AD31B207E1F710E0C2E6D0E004C02197CD
:10010000FE010E944708C136D107C9F70E94B70413
:100110000C944D080C94000096E0899FD0011124A6
:10012000AA56BE4F90967C936E935F9791E09196FE
:100130009C939197E0910302F09104029091020246
:10014000992339F0309751F0811108C08091B201A4
:100150000994309719F05C968C91FACF0895CF925C
:10016000DF92EF92FF920F931F9396E0899FF00129
:100170001124EA56FE4F11A2278D30A121303105FE
:1001800051F178F02230310509F451C023303105A6
:1001900009F452C01F910F91FF90EF90DF90CF9024
:1001A00008956623B9F361E070E00E948C002FB7D8
:1001B000F8948091920190919301A0919401B09153
:1001C00095012FBF8093EE019093EF01A093F00172
:1001D000B093F101DFCF9FB7F894C0909201D09017
:1001E0009301E0909401F09095019FBF0091EE0182
:1001F0001091EF012091F0013091F101C01AD10A64
:10020000E20AF30A009100021091010230E020E0BE
:100210000C151D052E053F0550F462E070E01F919E
:100220000F91FF90EF90DF90CF900C948C006111B4
:10023000B1CF63E070E0F3CF70E060E0F0CFAF9259
:10024000BF92CF92DF92EF92FF920F931F93CF93C3
:10025000DF936C017B018B01040F151FEB015E0125
:10026000AE18BF08C017D10759F06991D601ED91BA
:10027000FC910190F081E02DC6010995892B79F759
:10028000C501DF91CF911F910F91FF90EF90DF900B
:10029000CF90BF90AF900895833081F028F48130E3
:1002A00099F08230A9F008958730A9F08830C9F01C
:1002B0008430B1F4809180008F7D03C080918000F4
:1002C0008F7780938000089584B58F7784BD0895DB
:1002D00084B58F7DFBCF8091B0008F778093B00085
:1002E00008958091B0008F7DF9CFCF93DF93282FB1
:1002F00030E0F901E255FF4F8491F901E656FF4FD6
:10030000D491F901EA57FF4FC491CC23A1F0811198
:100310000E944C01EC2FF0E0EE0FFF1FE458FF4F5E
:10032000A591B491EC91ED2381E090E009F480E097
:10033000DF91CF91089580E090E0FACF862F0C9462
:1003400075011F93CF93DF93282F30E0F901E25519
:10035000FF4F8491F901E656FF4FD491F901EA5716
:10036000FF4FC491CC23A9F0162F81110E944C019C
:10037000EC2FF0E0EE0FFF1FEE58FF4FA591B49168
:100380008FB7F894EC91111108C0D095DE23DC935F
:100390008FBFDF91CF911F910895DE2BF8CF862F6D
:1003A000642F0C94A101CF93DF9390E0FC01E656FB
:1003B000FF4F24918A579F4FFC0184918823C9F0F5
:1003C00090E0880F991FFC01E859FF4FA591B49167
:1003D000FC01EE58FF4FC591D49161110DC09FB73C
:1003E000F8948C91209582238C93888128232883EC
:1003F0009FBFDF91CF910895623051F49FB7F89479
:100400003C91822F809583238C93E8812E2BEFCF14
:100410008FB7F894EC912E2B2C938FBFEACF862FB9
:10042000642F0C94D3013FB7F89480918D01909183
:100430008E01A0918F01B091900126B5A89B05C0B7
:100440002F3F19F00196A11DB11D3FBFBA2FA92F53
:10045000982F8827BC01CD01620F711D811D911D50
:1004600042E0660F771F881F991F4A95D1F70895BC
:100470008F929F92AF92BF92CF92DF92EF92FF92B4
:100480004B015C010E9413026B017C010E9413026C
:100490006C197D098E099F09683E7340810591059D
:1004A000A8F321E0821A9108A108B10888EEC80ECD
:1004B00083E0D81EE11CF11C81149104A104B10455
:1004C00029F7FF90EF90DF90CF90BF90AF909F9073
:1004D0008F900895089590E080E008958F929F9204
:1004E000AF92BF920F931F93CF93DF93CDB7DEB739
:1004F000A1970FB6F894DEBF0FBECDBF19A2423050
:1005000008F44AE08E010F5D1F4F842E912CB12C10
:10051000A12CA50194010E942508E62FB901CA016A
:10052000EA3044F5E05DD801EE938D01232B242BB6
:10053000252B79F790E080E0109769F0FD0101909C
:100540000020E9F73197AF014A1B5B0BBD0185E045
:1005500092E00E941F01A1960FB6F894DEBF0FBE75
:10056000CDBFDF91CF911F910F91BF90AF909F9022
:100570008F900895E95CD7CF009769F0FC01019056
:100580000020E9F73197AF01481B590BBC0185E00A
:1005900092E00C941F0190E080E00895CF93DF93E8
:1005A000EC0160E08E810E94A10161E08E810E94D9
:1005B000A10160E08E810E94A1018BE891E001978A
:1005C000F1F7DF91CF910895CF92DF92EF92FF92F2
:1005D0000F931F93CF93DF936C017C0187E0E80EAC
:1005E000F11CD0E0C0E0062F10E0B8010C2E02C0D4
:1005F000759567950A94E2F76170F70181917F0123
:100600000E94A1012196C430D10579F7C601DF917E
:10061000CF911F910F91FF90EF90DF90CF900C94AE
:10062000CE02CF92DF92EF92FF920F931F93CF9360
:10063000DF93EC01F62E642F8C810E94A1018D8145
:100640008F3F19F060E00E94A1010F2D10E08F850F
:1006500084FF25C06E0187E0C80ED11CF12CE12C6F
:10066000B8010E2C02C0759567950A94E2F7617087
:10067000F60181916F010E94A101FFEFEF1AFF0ABD
:1006800088E0E816F10461F7CE01DF91CF911F9168
:100690000F91FF90EF90DF90CF900C94CE02B801B5
:1006A00084E0759567958A95E1F7CE010E94E40292
:1006B0006F2DCE01DF91CF911F910F91FF90EF90A1
:1006C000DF90CF900C94E40240E0682F85E092E048
:1006D0000C941103CF93DF93823029F4909114028C
:1006E000986090931402809318021092190280E48B
:1006F00080931A0280E180931B0280E580931C02A4
:1007000061E0809109020E94D30180910A028F3F2B
:1007100019F061E00E94D30161E080910B020E9418
:10072000D301C5E0D2E09E012550324080911402F1
:1007300084FD0BC084E090E021962817390744F42B
:1007400061E08E810E94D301EECF88E090E0F4CF8B
:100750008BE39DE00197F1F760E0809109020E9430
:10076000A10160E080910B020E94A10180910A0228
:100770008F3F19F060E00E94A1018091140284FD76
:1007800039C063E085E092E00E94E402CBE4D6E465
:10079000CE010197F1F763E085E092E00E94E40268
:1007A0002197F1F763E085E092E00E94E40283E59F
:1007B00092E00197F1F762E085E092E00E94E402A6
:1007C0008091140280620E94640384E08093150289
:1007D0008CE00E94640381E00E9464038BE39FE14C
:1007E0000197F1F782E08093160286E0DF91CF91C6
:1007F0000C94640380620E9464038BE496E4019786
:10080000F1F78091140280620E94640383E592E014
:100810000197F1F78091140280620E946403D0CFA7
:1008200090911802691710F06FEF690FE62FF0E052
:10083000EB5FFD4F9489890F80680C94640381E01D
:100840000E9464038BE39FE10197F1F760E080E091
:100850000C94100441E00E94110381E090E008959F
:100860000F931F93CF93DF938B01877028E0829FB4
:10087000C001112480640E946403E801085F1F4FD7
:10088000699185E092E00E942A04C017D107C1F760
:10089000DF91CF911F910F910895811106C061E002
:1008A0008FE00E94100467E007C0861309C060E073
:1008B0008FE00E94100466E085E092E00C942A0428
:1008C000861750F460E08FE00E94100466E085E037
:1008D00092E00E942A04E3CF08951F920F920FB670
:1008E0000F9211242F933F938F939F93AF93BF93B6
:1008F0008091920190919301A0919401B091950102
:1009000030918C0123E0230F2D3758F50196A11D5E
:10091000B11D20938C018093920190939301A09339
:100920009401B093950180918D0190918E01A091D9
:100930008F01B09190010196A11DB11D80938D0191
:1009400090938E01A0938F01B0939001BF91AF91CE
:100950009F918F913F912F910F900FBE0F901F90FD
:10096000189526E8230F0296A11DB11DD2CFCF9373
:10097000DF93CDB7DEB7C254D1090FB6F894DEBF0E
:100980000FBECDBF789484B5826084BD84B581608C
:1009900084BD85B5826085BD85B5816085BD80914A
:1009A0006E00816080936E001092810080918100C2
:1009B00082608093810080918100816080938100BA
:1009C000809180008160809380008091B10084607C
:1009D0008093B1008091B00081608093B0008091DD
:1009E0007A00846080937A0080917A00826080939C
:1009F0007A0080917A00816080937A0080917A00F9
:100A0000806880937A001092C10048E0B42E7E0185
:100A100029E3E20EF11CF7012B2D11922A95E9F73B
:100A200094E09AAF2EE02BAF8FE18CAF8DAF8E01AB
:100A30000F5C1F4FF8013B2D11923A95E9F78BABF4
:100A40008CAB2DAB9EAB18AA1FA690E199A79AA7D5
:100A50009BA79CA79DA79EA79FA718A61FA298E14A
:100A600099A39AA39BA39CA39DA39EA39FA318A213
:100A70001F8E9CE1998F9A8F9B8F9C8F9D8F9E8F4D
:100A80009F8F188E1F8A9EE1998B9A8B9B8B9C8BD4
:100A90009D8B9E8B9F8B188A1F8689878A878B8761
:100AA0008C878D878E878F87CE0101966C01FC0124
:100AB0003B2D11923A95E9F78AE08A8381E18D8393
:100AC0002E83BE01675D7F4F80E00E943004BE012F
:100AD0006F5D7F4F81E00E943004BE01675E7F4FF3
:100AE00082E00E943004BE016F5E7F4F83E00E946F
:100AF0003004BE01675F7F4F84E00E943004B7017D
:100B000086E00E943004B80187E00E943004B601FC
:100B100088E00E94300461E08CE00E94D30161E033
:100B20008DE00E94D30182E390E09093FF018093D7
:100B3000FE01909301028093000282E00E946A030A
:100B400060E083E00E94100486E391E00E94BC0212
:100B500061E084E00E94100468E085E092E00E9479
:100B60002A0480E491E00E94BC0268E085E092E003
:100B70000E942A0468EB7BE080E090E00E9438024B
:100B800061E08CE00E94A10161E08DE00E94A10182
:100B90000E941F04E8E1F1E0D60101900D92BA94A1
:100BA000E1F786E491E00E94BC0261E08FE00E94E0
:100BB000100462E080E00E944D04F12CE12C412CF5
:100BC000512C3201439451E0509302028FB7F894B4
:100BD000409192015091930160919401709195011F
:100BE0008FBF8091F2019091F301A091F401B09137
:100BF000F501481B590B6A0B7B0B8091FE0190910C
:100C0000FF01B0E0A0E084179507A607B707D8F664
:100C100010E08091FC01181760F4E091F801F09168
:100C2000F901E10FF11D62E080810E94D3011F5F95
:100C3000F0CF312C8091FD01381608F068C0A32C4C
:100C4000B12CE091FA01F091FB01EA0DFB1D61E08E
:100C500080810E94D301E091FA01F091FB01EA0D3D
:100C6000FB1D60E080810E94A101D301C201032C21
:100C700004C0880F991FAA1FBB1F0A94D2F723969E
:100C80009FAF8EAF23974C0180949094212C80913C
:100C9000FC01281628F5022D10E0E091F801F091F2
:100CA000F901E00FF11F80810E9475010C5F1F4F59
:100CB000000F111FF801EA56FE4F892B61F4808165
:100CC000918123962EAD3FAD2397822B932B918359
:100CD00080832394DCCF8081918188219921F7CF73
:100CE000E091FA01F091FB01EA0DFB1D61E08081CA
:100CF0000E94A1018091FA019091FB01A80EB91EFA
:100D000060E0F50180810E94D301339493CF06E91E
:100D100011E0F801878D90A1892B31F4148E2FEF0B
:100D20003FEF368F258F11A2369631E0E23DF30773
:100D300089F7912C8091FC01981608F053C0812C02
:100D4000A92CB12CAA0CBB1CC50182569E4F5C017C
:100D50002091FD01821608F043C0F5016081718188
:100D6000082C02C0769567950A94E2F7929E90014E
:100D70001124280D311DE6E9F1E080E0458D568D06
:100D80002417350709F4EAC08F5F36968A30B1F729
:100D900060FF24C0E6E9F1E090E080E0448D41117D
:100DA00018C0E091F601F091F701E20FF31F4081C6
:100DB00056E0589FF001599FF00D1124EA56FE4F5E
:100DC000448F368F258F10A2178E61E00E94AF00EE
:100DD00005C0019636968A30910501F78394B8CF05
:100DE0009394A8CF80E0F80191A19111892F0A5F17
:100DF0001F4FF1E0023D1F07B1F79FB7F8944091F4
:100E000092015091930160919401709195019FBF5F
:100E10004093F2015093F3016093F4017093F50154
:100E2000882309F4D0CE8091B701882309F4CBCE72
:100E30008091B5019091B601019709F0C4CE8091DF
:100E4000B201882309F4BFCE8093910161E080E074
:100E50000E9410044AE0B7010F2C000C880B990B7C
:100E60000E946E0261E083E00E94100410919101E3
:100E700041E0612F85E092E00E941103123331F5C9
:100E8000E114F10409F49FCE21E0E21AF1080E9476
:100E90001F04F701EE0FFF1FEC0DFD1D6081718136
:100EA0006115710561F0FB0101900020E9F73197B0
:100EB000AF01461B570B85E092E00E941F0168EED0
:100EC00073E080E090E00E9438027DCE183329F56F
:100ED00033E0E316F1040CF076CE5FEFE51AF50A85
:100EE0000E941F04F701EE0FFF1FEC0DFD1D608136
:100EF00071816115710561F0FB0101900020E9F736
:100F00003197AF01461B570B85E092E00E941F010D
:100F100063E08E2D0E944D04D2CF113409F053CEE0
:100F20000E941F0481E0E816F10409F04CCE0E94F3
:100F30001F0449E050E067E571E085E092E00E941F
:100F40001F0161E080E00E9410044BE050E061E688
:100F500071E085E092E00E941F0135CE617036CFCE
:100F60001092980110929C0110929B0110929D0189
:100F700080E391E09093970180939601E2EBF1E09A
:100F80001082148213821582369681E0EE3EF807B5
:100F9000B9F784E091E09093F9018093F80180E043
:100FA00091E09093FB018093FA0184E08093FC012F
:100FB0008093FD0128E031E03093F7012093F601A2
:100FC0002AE030E03093FF012093FE0124EF31E06E
:100FD0003093010220930002109204021092030247
:100FE0001092F2011092F3011092F4011092F501A7
:100FF00010920202109208021092070224E231E0DD
:10100000309306022093050291E0909309029FEF2E
:1010100090930A0292E090930B0293E090930C025B
:1010200080930D0285E080930E0286E080930F028C
:1010300010921002109211021092120210921302DA
:101040001092140281E00C946A03A1E21A2EAA1BEA
:10105000BB1BFD010DC0AA1FBB1FEE1FFF1FA21768
:10106000B307E407F50720F0A21BB30BE40BF50B65
:10107000661F771F881F991F1A9469F760957095EE
:10108000809590959B01AC01BD01CF010895EE0FB5
:10109000FF1F0590F491E02D0994F894FFCF1011F3
:1010A00013120E0F090831323341343536423738C6
:1010B000394323302A4446016D0176018101000045
:1010C00000002A041F016B026A02000000000F02E8
:1010D000CF019E014E414855454C49544F00474170
:1010E0004D4553004275737175656461596465744B
:1010F0007275697200496E696369616E646F00425E
:101100002D2063616E63656C6172005361626F7460
:10111000616A6500446F6D696E6163696F6E00425C
:0A1120006F6D622053657475700056
:107E0000112484B714BE81FFF0D085E080938100F7
:107E100082E08093C00088E18093C10086E0809377
:107E2000C20080E18093C4008EE0C9D0259A86E02C
:107E300020E33CEF91E0309385002093840096BBD3
:107E4000B09BFECF1D9AA8958150A9F7CC24DD24C4
:107E500088248394B5E0AB2EA1E19A2EF3E0BF2EE7
:107E6000A2D0813461F49FD0082FAFD0023811F036
:107E7000013811F484E001C083E08DD089C08234E0
:107E800011F484E103C0853419F485E0A6D080C0E4
:107E9000853579F488D0E82EFF2485D0082F10E0AE
:107EA000102F00270E291F29000F111F8ED06801E7
:107EB0006FC0863521F484E090D080E0DECF843638
:107EC00009F040C070D06FD0082F6DD080E0C81688
:107ED00080E7D80618F4F601B7BEE895C0E0D1E017
:107EE00062D089930C17E1F7F0E0CF16F0E7DF06D8
:107EF00018F0F601B7BEE89568D007B600FCFDCFD4
:107F0000A601A0E0B1E02C9130E011968C91119780
:107F100090E0982F8827822B932B1296FA010C0160
:107F200087BEE89511244E5F5F4FF1E0A038BF0790
:107F300051F7F601A7BEE89507B600FCFDCF97BE46
:107F4000E89526C08437B1F42ED02DD0F82E2BD052
:107F50003CD0F601EF2C8F010F5F1F4F84911BD097
:107F6000EA94F801C1F70894C11CD11CFA94CF0C13
:107F7000D11C0EC0853739F428D08EE10CD085E9AC
:107F80000AD08FE07ACF813511F488E018D01DD067
:107F900080E101D065CF982F8091C00085FFFCCF94
:107FA0009093C60008958091C00087FFFCCF809118
:107FB000C00084FD01C0A8958091C6000895E0E648
:107FC000F0E098E1908380830895EDDF803219F02E
:107FD00088E0F5DFFFCF84E1DECF1F93182FE3DFCA
:107FE0001150E9F7F2DF1F91089580E0E8DFEE27F6
:047FF000FF270994CA
:027FFE00040479
:00000001FF
